101012345678900000000002602120009A094101JPMORGAN CHASE         ACME CORP                      
5220ACME CORP       000000000009876543210000000000PPDPAYROLL   Feb 13260213   1123456780000001
622123123123123454321        00000999000001           Nacho Libre             0123456780000001
622716450821707537410        00000998280002           Massey Kenzo            0123456780000002
622636216293367258996        00000997670003           Munoz Mohammed          0123456780000003
622522007897103913879        00000996100004           Duran Terry             0123456780000004
622519554675921868858        00000995020005           Walters Elian           0123456780000005
632423384597112543148        00000993600006           Daugherty Johanna       0123456780000006
622630698393497273001        00000993290007           Santiago Jair           0123456780000007
632112976769203651857        00000992960008           Meadows Nancy           0123456780000008
622287269003987374031        00000992220009           Sheppard Anderson       0123456780000009
622151787090982151601        00000990650010           Chandler Noe            0123456780000010
622249929852353796760        00000989340011           Valencia Richard        0123456780000011
622165268672342383715        00000989200012           Dillon Nikolai          0123456780000012
632852981575513545313        00000988310013           Nixon Charlie           0123456780000013
622649824858915433128        00000987130014           Paul Casen              0123456780000014
632413702723403061970        00000986740015           Ortega Alena            0123456780000015
632103676621795773359        00000986640016           Reyes Kadence           0123456780000016
622745216985673470626        00000985100017           Mahoney Junior          0123456780000017
632192678126260823864        00000984360018           Jennings Melina         0123456780000018
622201869549321795692        00000983110019           Love Cayden             0123456780000019
632671989222201790062        00000982680020           Buck Clementine         0123456780000020
632725172847653158800        00000980270021           Lowe Saige              0123456780000021
632855972413317271216        00000978380022           Bryan Amalia            0123456780000022
622149572943204902301        00000978150023           Costa Jon               0123456780000023
622345562243756853425        00000977450024           Moss Xzavier            0123456780000024
632813954583130430099        00000973550025           Gallegos Amaya          0123456780000025
632229544442386029944        00000972720026           Callahan Arya           0123456780000026
622557557376106233564        00000972360027           Tate Shawn              0123456780000027
632343424466616628061        00000971600028           Gallagher Amina         0123456780000028
622165022075395832365        00000971460029           Carpenter Jayce         0123456780000029
622999663019462684339        00000971320030           Montgomery Caspian      0123456780000030
622117548423807094417        00000970820031           Daugherty Kareem        0123456780000031
632773557735325111039        00000969840032           Phan Elyse              0123456780000032
632708520941437042941        00000968510033           Frederick Milani        0123456780000033
632154640640962380332        00000967420034           Lugo Avery              0123456780000034
622312059630590701913        00000966970035           Mullins Elliott         0123456780000035
622645445541178964857        00000966960036           Avery Bear              0123456780000036
632815677360383893029        00000966030037           Beck Adley              0123456780000037
622145053819331823758        00000965730038           Wise Isaac              0123456780000038
622911815315402288125        00000965360039           Romero Darius           0123456780000039
622714212762236407631        00000963960040           Schaefer Jordan         0123456780000040
632811136827475014518        00000962720041           O’Neal Rebecca          0123456780000041
632350640705316532849        00000962550042           McCall Skye             0123456780000042
632807149693437937135        00000961220043           Mack Carolyn            0123456780000043
622952161699207687892        00000959690044           Cannon Malachi          0123456780000044
622143414594481186441        00000959520045           Bender Felix            0123456780000045
622695412021956584953        00000956310046           Kelley Nico             0123456780000046
632826189695455879874        00000956070047           Owens Brinley           0123456780000047
632619822244134391797        00000954910048           Lu Lena                 0123456780000048
632891261148607902032        00000954060049           Pham Zoey               0123456780000049
632126334915323423853        00000952830050           Wood Iliana             0123456780000050
632405985353633634251        00000952040051           Thornton Drew           0123456780000051
632750709456846572768        00000950000052           Bridges Sarah           0123456780000052
632538777803834085690        00000947430053           Chavez Ramona           0123456780000053
622907984138376578503        00000946960054           Nelson Ian              0123456780000054
632981311142359630648        00000946800055           Curry Magnolia          0123456780000055
622992181782867286376        00000946710056           Alexander Easton        0123456780000056
622635569575890111889        00000946460057           Mack Abel               0123456780000057
632144790802437183687        00000945570058           Newman Leia             0123456780000058
622239009896397771586        00000945130059           Jaramillo Marcos        0123456780000059
632723910104976495426        00000944860060           Navarro Laurel          0123456780000060
622428064780420665444        00000944120061           Schultz Izaiah          0123456780000061
622535394322728925318        00000943670062           Ellison Wesson          0123456780000062
632720682092964463628        00000943600063           Mitchell Aurora         0123456780000063
622477603423806885708        00000942050064           Richmond Tony           0123456780000064
622232718090475113053        00000941270065           Villalobos Rowen        0123456780000065
632564214683890223584        00000940620066           Reed Kinley             0123456780000066
622861302066816221788        00000938380067           Weber Axton             0123456780000067
632538607825381749124        00000937020068           Matthews Ariah          0123456780000068
622111932376998080146        00000934790069           Dunlap Aziel            0123456780000069
632702803431740017149        00000933720070           Cantrell Mckenzie       0123456780000070
622425469608299833619        00000932900071           Fuller Jagger           0123456780000071
622889726673272707487        00000932630072           Hampton River           0123456780000072
622667770210283052091        00000932490073           Parrish Preston         0123456780000073
622369025618373945069        00000930890074           Sosa Kyro               0123456780000074
632772435319709451866        00000930770075           Rivas Elaina            0123456780000075
622441147335357922694        00000930750076           Villa Dallas            0123456780000076
632974575615305986878        00000930360077           Curry Everly            0123456780000077
622695101943821935203        00000928960078           Weaver Emilio           0123456780000078
632344001264719348098        00000928810079           Boyd Melany             0123456780000079
622755602036991481804        00000928680080           Stuart Zion             0123456780000080
632476466029120114304        00000928450081           Collier Bailee          0123456780000081
632661446617598803459        00000926970082           Weber Madelyn           0123456780000082
622953098993781768387        00000924590083           McCarthy Quincy         0123456780000083
632100355630496406750        00000924370084           Simpson Promise         0123456780000084
632367277046223330173        00000924210085           Casey Addison           0123456780000085
632545604083560793096        00000922390086           Craig Kehlani           0123456780000086
622818164639543950625        00000922290087           Wolf Emmanuel           0123456780000087
632443696832381786111        00000920760088           Xiong Nataly            0123456780000088
632408814623202681136        00000917360089           Weeks Sarai             0123456780000089
632255948289513433498        00000916870090           Knox Rhea               0123456780000090
622380926352341602789        00000916820091           Mora Magnus             0123456780000091
622842583044340827123        00000916710092           Graham Jaxon            0123456780000092
632893611917417967874        00000915660093           Murray Jacqueline       0123456780000093
622773842007636759999        00000914660094           Santana Asa             0123456780000094
632521236249790377877        00000913470095           Quintana Elsa           0123456780000095
632513531279836740086        00000913250096           Barry Ila               0123456780000096
632225325181735321853        00000913230097           Osborne Rosa            0123456780000097
632960604217452842470        00000913080098           Montes Zariah           0123456780000098
632284868864905079182        00000912670099           Johnston Oaklynn        0123456780000099
632527578232966197947        00000911820100           McDonald Mallory        0123456780000100
622179339133278634935        00000911540101           Cox Jack                0123456780000101
632531269295665688755        00000911380102           Arias Ruth              0123456780000102
622496653144725916414        00000911160103           Wright Rayan            0123456780000103
622875508792396335201        00000908110104           Sims Samson             0123456780000104
622800661698359341069        00000907190105           Blair Landen            0123456780000105
622381394300337341474        00000906040106           Lowe Wilson             0123456780000106
632919707956874249193        00000904980107           McCarthy Astrid         0123456780000107
632553662503568975742        00000902710108           Buchanan Adelaide       0123456780000108
632184399359311403965        00000899670109           Sharp Melany            0123456780000109
632917410964624871498        00000899290110           Walls Ivory             0123456780000110
632747054884977941813        00000898530111           Bartlett Alicia         0123456780000111
622493502436740681144        00000898340112           Villa Gage              0123456780000112
632600984561549581082        00000898070113           Hart Meghan             0123456780000113
632332584755664818584        00000896870114           Alfaro Azariah          0123456780000114
632623269878360171245        00000896830115           Valdez Lennon           0123456780000115
622297300716397557851        00000896440116           Moyer Ian               0123456780000116
622348637374526644457        00000896090117           Park Ramon              0123456780000117
632161071726912819674        00000894340118           Garrison Lola           0123456780000118
622896029117466573603        00000893030119           Watkins Damon           0123456780000119
632981419880890761024        00000888430120           Gregory Avayah          0123456780000120
622782776797361760618        00000888220121           Vang Jonah              0123456780000121
632537906298806702786        00000886720122           Gonzales Iliana         0123456780000122
622416965016704761858        00000886520123           Garza Kaiden            0123456780000123
622550875882712303664        00000884110124           Sierra Joel             0123456780000124
632561413833990595767        00000884000125           Barrett Valeria         0123456780000125
632687441121516172427        00000883700126           Grimes Noah             0123456780000126
622914600674468564626        00000883140127           Bowers Preston          0123456780000127
632256936309664414274        00000879900128           Travis Eileen           0123456780000128
622537764717434944680        00000878970129           Hines Moises            0123456780000129
632687763306407224714        00000878130130           Hart Katie              0123456780000130
632216083727316494810        00000878120131           Baldwin Journee         0123456780000131
622703770593997736282        00000877710132           Olsen Koa               0123456780000132
632536909562741621665        00000877460133           Ruiz Arielle            0123456780000133
632250422130902564652        00000876620134           Buck Miriam             0123456780000134
632908092472162991008        00000876190135           Peck Jaylin             0123456780000135
622985209644886907461        00000875780136           Graham Xavier           0123456780000136
622986750950107726183        00000875400137           Oliver Lewis            0123456780000137
622129549005570308791        00000875220138           Hubbard Liam            0123456780000138
622164885261564667135        00000874930139           Goodman Maison          0123456780000139
632252927256914192995        00000874580140           Burnett Johanna         0123456780000140
622745907626433069018        00000873560141           Marin Fabian            0123456780000141
632446159970652897343        00000872730142           Stafford Gwendolyn      0123456780000142
632157995650379029098        00000871950143           Hampton Teagan          0123456780000143
632303008692744745116        00000871430144           Higgins Loretta         0123456780000144
622225422677736735093        00000870150145           Hutchinson Duncan       0123456780000145
632918200668324972674        00000869520146           Terrell Bethany         0123456780000146
622699017639408227623        00000869360147           Bender Graham           0123456780000147
632168002174510006177        00000868590148           Pham Adelyn             0123456780000148
632885476071693338203        00000868530149           Keller Khaleesi         0123456780000149
622227898934963644832        00000868340150           Gates Eric              0123456780000150
632101722474891314809        00000867720151           Ortega Artemis          0123456780000151
622955598569975893903        00000866310152           Mathews Kase            0123456780000152
622138529206866217079        00000865810153           Salas Edison            0123456780000153
632497333232349140438        00000865010154           Cline Remy              0123456780000154
632505715132525300485        00000863810155           Cameron Lilly           0123456780000155
632305353802523385399        00000863050156           Chen Elianna            0123456780000156
622625758539908049104        00000860210157           Olson Alec              0123456780000157
622658209350444779681        00000858590158           Dickerson Sawyer        0123456780000158
622294186990308043967        00000858120159           Fry Jon                 0123456780000159
632537854765640300990        00000858100160           Foley Vera              0123456780000160
632194993741620546140        00000857570161           Rodgers Clarissa        0123456780000161
632486141937713752866        00000856920162           Trejo Frances           0123456780000162
622523015476160215145        00000855180163           Velez Emery             0123456780000163
632785365190970327478        00000853320164           Glover Rosie            0123456780000164
632249105014250612661        00000853250165           Benton Zariyah          0123456780000165
622525371868891871091        00000852980166           Miranda Robert          0123456780000166
622890976758628527458        00000852850167           Perry Alistair          0123456780000167
632193823793541443561        00000852250168           Marshall Addilyn        0123456780000168
632610509342704666937        00000851800169           Wallace Julieta         0123456780000169
622542009197134964047        00000851440170           Rasmussen Francis       0123456780000170
632755921097571910536        00000851220171           Spencer Maliyah         0123456780000171
622958816691840562014        00000850710172           Griffin Angelo          0123456780000172
632778401160360446062        00000849950173           Hall Zola               0123456780000173
622850590614714276322        00000849850174           Wang Dominic            0123456780000174
622733851460702204132        00000848780175           McCoy Elliott           0123456780000175
632297841304574613758        00000848650176           Dejesus Jaylah          0123456780000176
622149314042738736097        00000847120177           Ramirez Anderson        0123456780000177
632883069699641058791        00000846530178           Richmond Elisa          0123456780000178
622810321137554848992        00000846380179           Burton Corey            0123456780000179
622502605380484427753        00000846300180           Higgins Kelvin          0123456780000180
632988024643626410494        00000846280181           Vance Emely             0123456780000181
622254385368814614306        00000844100182           Hill Rey                0123456780000182
622439643476443160046        00000843500183           Wilkerson Jaxen         0123456780000183
622706213168899169337        00000842110184           Bruce Jonas             0123456780000184
622314372429656621629        00000840690185           Montoya Briggs          0123456780000185
632267634709487468568        00000839440186           Lowe Sloan              0123456780000186
622829264727621190672        00000838890187           Norris Armando          0123456780000187
622456143954971823843        00000838360188           Schultz Martin          0123456780000188
632935440963769590132        00000837470189           Acevedo Teagan          0123456780000189
622971119463272787441        00000836580190           Rojas Maximus           0123456780000190
632138993478581150278        00000836290191           Moody Oaklee            0123456780000191
622912788448681769300        00000834240192           Dillon Russell          0123456780000192
632493986559550826344        00000833350193           Hester Amirah           0123456780000193
632110494690854223720        00000829520194           Hodge Oakleigh          0123456780000194
632392798087971160506        00000828010195           Stone Isabel            0123456780000195
632115636194121631635        00000826640196           Harvey Jaliyah          0123456780000196
632943832055155202540        00000824820197           Hardin Milan            0123456780000197
632237826069237940686        00000824680198           Walsh Haley             0123456780000198
632333501152141934109        00000823560199           Lee Aurelia             0123456780000199
622316998866675224942        00000823170200           Moses Grey              0123456780000200
632161537789216916159        00000822510201           Whitney Liv             0123456780000201
632282480418220558630        00000820230202           McBride Livia           0123456780000202
622696995695741538219        00000818840203           Everett Quinton         0123456780000203
622957418070912072869        00000818060204           Park Jagger             0123456780000204
632538574534448399853        00000816500205           Travis Jamie            0123456780000205
622333671100873653622        00000816490206           Zamora Rene             0123456780000206
632639750882619853304        00000814570207           Montgomery Marceline    0123456780000207
632463023804260280912        00000813650208           Herman Magdalena        0123456780000208
632906729210280264654        00000811260209           Sherman Katelyn         0123456780000209
622574302520292390670        00000808930210           Garrison Ambrose        0123456780000210
622398188477892939185        00000806910211           Ingram Miguel           0123456780000211
632556254086893276052        00000805850212           Lara Margaret           0123456780000212
632239441102527248280        00000805440213           Miranda Hailey          0123456780000213
622372344850392525464        00000803540214           Hunt Ronan              0123456780000214
622681056365475570403        00000802250215           Mathews Rome            0123456780000215
622556769845944532620        00000802230216           Adams Jordan            0123456780000216
632623662795245912188        00000801780217           Woodard Whitney         0123456780000217
632625093322938251712        00000799990218           Franklin Sienna         0123456780000218
622817889921569060347        00000799840219           Gaines Turner           0123456780000219
632253915164623096260        00000799590220           Kline Paris             0123456780000220
622833468527833659575        00000798750221           Duke Legacy             0123456780000221
632322547604921066851        00000798480222           Lim Frances             0123456780000222
622687850896675511689        00000797060223           Hancock Jace            0123456780000223
622352130035710539432        00000796120224           George Roland           0123456780000224
632142974417849913148        00000792930225           Bradshaw Amirah         0123456780000225
632513928720361029564        00000792910226           Vincent Kamryn          0123456780000226
632898274666596889919        00000792490227           Dickerson August        0123456780000227
632534184861414269844        00000791950228           Howe Aarya              0123456780000228
632967760322813159250        00000790950229           Freeman Harmony         0123456780000229
622980346684783491657        00000789710230           Freeman Jace            0123456780000230
622619554161995820557        00000788210231           Ingram Braylen          0123456780000231
622786049185866149572        00000787820232           Pacheco Curtis          0123456780000232
632155963519187518381        00000787190233           Hale Marianna           0123456780000233
632775610006627184115        00000786800234           Carpenter Anais         0123456780000234
622733215540452507382        00000783690235           Velasquez Kace          0123456780000235
622103498967821436967        00000783520236           Mayo Alessandro         0123456780000236
632657354470278811223        00000782430237           Brooks Rylee            0123456780000237
632511570376664717898        00000782170238           Nolan Noa               0123456780000238
622535610895537941120        00000781280239           Colon Franco            0123456780000239
622819826591201816574        00000780420240           Hicks Devin             0123456780000240
622896907333887309690        00000777460241           Griffith Rogelio        0123456780000241
622297561088217038440        00000777310242           Marsh Caden             0123456780000242
632422401398502274092        00000776580243           Rowland Armani          0123456780000243
632504034294739994773        00000775430244           Ball Persephone         0123456780000244
622224561290811499171        00000775330245           French Ryder            0123456780000245
622170622687671873486        00000775140246           Rocha Rory              0123456780000246
622501799967464275721        00000775000247           Koch Remy               0123456780000247
632817884030728409109        00000773130248           McDaniel Collins        0123456780000248
632642316075175807508        00000772360249           Lopez Serena            0123456780000249
632705391392109884478        00000771840250           Warren Kenzie           0123456780000250
632743480302275946830        00000771770251           Farley Esperanza        0123456780000251
622921165928405658578        00000769200252           Wilkins Emmanuel        0123456780000252
622128597473654103433        00000769090253           Ramsey Darius           0123456780000253
622823876829995628539        00000768860254           O’Neill Callahan        0123456780000254
632790673053930671289        00000766970255           Hail Lyra               0123456780000255
632252358518333265413        00000766370256           Khan Estella            0123456780000256
632720724270701995901        00000764550257           Charles Saige           0123456780000257
632660548466930580803        00000764100258           Brennan Ximena          0123456780000258
632483327134280675926        00000763120259           Hill Magdalena          0123456780000259
622263746415670300603        00000763080260           Carson Keanu            0123456780000260
632407506456606434379        00000762960261           Newman Stormi           0123456780000261
632570174246829811150        00000762450262           Weiss Norah             0123456780000262
632383534874828949935        00000761690263           Hardin Eliana           0123456780000263
632247969460706723193        00000761100264           Bowman Janiyah          0123456780000264
622400120045747512306        00000758510265           Logan Abraham           0123456780000265
622526562924508176915        00000758060266           Garza Jaiden            0123456780000266
632417843056667679602        00000757960267           Vaughn Bianca           0123456780000267
632858456803887093213        00000757770268           Humphrey Skye           0123456780000268
632252769360232636814        00000755660269           Rich Kyra               0123456780000269
632655649553222399728        00000753300270           Lyons Briella           0123456780000270
632517590055906355894        00000752690271           Collins Wren            0123456780000271
622896538067127777248        00000751180272           Quinn Harold            0123456780000272
622311282599708594631        00000749690273           Tanner Bodhi            0123456780000273
632294557723912543464        00000748840274           Patel Lyla              0123456780000274
622584302878364234739        00000748110275           Kelley Salvador         0123456780000275
622461301819143058602        00000747850276           Alfaro Waylon           0123456780000276
622664281866864748074        00000744260277           Rose Wade               0123456780000277
632501904319788927089        00000742480278           Ray Cataleya            0123456780000278
632348755885422897451        00000740540279           Russo Guadalupe         0123456780000279
632554145284132672978        00000737300280           Brennan Amirah          0123456780000280
622656346482286477176        00000736980281           Rosales Tomas           0123456780000281
622910641138989912749        00000736010282           O’Donnell Darius        0123456780000282
622110365163381759029        00000735050283           Bradford Azrael         0123456780000283
632523229529842344647        00000734960284           Velez Oaklynn           0123456780000284
622723044477810816898        00000733690285           Bruce Kade              0123456780000285
632538599571156192313        00000733090286           Salazar Astrid          0123456780000286
632666215066523425789        00000733040287           Soto Oaklyn             0123456780000287
622483481825742649270        00000731890288           Christensen Griffin     0123456780000288
632785882526988960610        00000731560289           Rosas Elliott           0123456780000289
632600124793135921310        00000731540290           O’Connor Ada            0123456780000290
622732558833336461240        00000731150291           Brandt Ashton           0123456780000291
622997443111932849395        00000730650292           Joseph Louis            0123456780000292
632835973878144146120        00000730320293           Miller Milana           0123456780000293
622341905586424496763        00000727110294           Pope Boston             0123456780000294
622736050969813160211        00000725800295           Powell Augustine        0123456780000295
622856111704267940049        00000725450296           McClain Anders          0123456780000296
632489935459529335421        00000725370297           Poole Isabella          0123456780000297
632734856378395386742        00000725170298           Woods Heaven            0123456780000298
632213787256743912659        00000724030299           Caldwell Mae            0123456780000299
622671163651622744537        00000721840300           McDowell Stanley        0123456780000300
622410332009466380615        00000721170301           Blair Korbyn            0123456780000301
622568387330644650747        00000719250302           Abbott Dilan            0123456780000302
622241597529522643271        00000718690303           Dunlap Maxton           0123456780000303
632522615699442283392        00000718390304           Hughes Emmie            0123456780000304
622472840036319880255        00000718240305           Palacios Esteban        0123456780000305
632667946157410439624        00000717000306           Woods Tinsley           0123456780000306
632817839430599086760        00000714640307           Jordan Lucia            0123456780000307
632828702814142305196        00000710120308           Gallagher Faye          0123456780000308
622204068619289855531        00000709220309           McKinney Jerry          0123456780000309
632967580612692094794        00000709020310           McIntyre Mikaela        0123456780000310
632941335856168618244        00000707230311           Vega Arabella           0123456780000311
622652774923429112348        00000707200312           Rice Michael            0123456780000312
622504679902250769789        00000707040313           Benitez Adrian          0123456780000313
622119676702754203513        00000706570314           Wong Frederick          0123456780000314
622789119514446810781        00000705830315           Owens Krew              0123456780000315
622478153488633877818        00000703480316           Mathews Abdullah        0123456780000316
632204453220377166952        00000701770317           Keith Lilah             0123456780000317
622687621445863012720        00000701000318           Cortes Samir            0123456780000318
632516511011303619273        00000700350319           Hickman Maddison        0123456780000319
622304582208136920064        00000700180320           Tate Chase              0123456780000320
632459793393753316458        00000699630321           Escobar Kaiya           0123456780000321
622169182978332458269        00000699020322           Newman Uriah            0123456780000322
622101639903660418474        00000698400323           Holloway Alfredo        0123456780000323
632756958521128131812        00000697870324           Tran Layla              0123456780000324
622794383319287704220        00000695230325           Ibarra Darwin           0123456780000325
632338338951882587657        00000694690326           Goodman Adeline         0123456780000326
632662915692845363923        00000693910327           Crane Nia               0123456780000327
622842797011989888519        00000693810328           McKee Bryan             0123456780000328
622379394143989135341        00000693800329           Nielsen Christian       0123456780000329
622540634174948603942        00000692470330           Hull Zion               0123456780000330
622749441608597289487        00000691270331           Frost Allan             0123456780000331
632932609643161822788        00000690690332           Long Mckinley           0123456780000332
622136294606786867216        00000689830333           Adkins Zachariah        0123456780000333
622978642409500940265        00000688640334           Morton Jase             0123456780000334
622396368656164446854        00000688470335           Khan Vihaan             0123456780000335
622664720124248243142        00000687880336           Lyons Leonard           0123456780000336
622956001441339701285        00000687110337           Herrera Ruben           0123456780000337
632410658899428734706        00000682910338           Nicholson Cadence       0123456780000338
632425693439553260297        00000682840339           Odom Reese              0123456780000339
632421791673896346286        00000682180340           Alvarez Alondra         0123456780000340
632950548854269951195        00000682020341           Waters Angela           0123456780000341
622434927577250786554        00000681270342           McCann Augustus         0123456780000342
622169328591805809576        00000681090343           Gallagher Juelz         0123456780000343
632412667386743796062        00000680180344           Livingston Brielle      0123456780000344
632948131426205247256        00000678610345           Hoover Azariah          0123456780000345
622998360865519926557        00000678060346           Huynh Cassius           0123456780000346
632978284725899200443        00000677890347           Mejia Legacy            0123456780000347
622688170973464473384        00000677670348           Mack Leif               0123456780000348
632116760179662570743        00000676520349           Rivers Mariam           0123456780000349
632915443536894283092        00000676400350           Solomon Leia            0123456780000350
632840282390221674097        00000675350351           Kelley Adley            0123456780000351
632384178552100372510        00000674610352           Banks Amoura            0123456780000352
632823566430918825616        00000673640353           Trejo Marie             0123456780000353
622183542624732541206        00000673200354           Donovan Ford            0123456780000354
622585909310599675350        00000672620355           Keith Ezequiel          0123456780000355
622563492618117837208        00000669570356           Choi Julius             0123456780000356
632710380926945124495        00000667970357           Cross Kairi             0123456780000357
622452130963180046656        00000667750358           Zavala Ahmad            0123456780000358
622765376907787312150        00000667390359           Compton Cairo           0123456780000359
622218727121124894524        00000666780360           Watkins Willie          0123456780000360
632957812185661625195        00000666630361           Duke Magdalena          0123456780000361
622318792046159464161        00000664130362           Kaur Nico               0123456780000362
622988643873354210481        00000662370363           Cantrell Gavin          0123456780000363
622922089163102921842        00000660440364           Gillespie Justice       0123456780000364
622704303449395973809        00000659960365           Terrell Jameson         0123456780000365
632736398970228672555        00000659640366           Copeland Madilynn       0123456780000366
622936092460135530887        00000658870367           Bowers Cory             0123456780000367
632929729877580362894        00000658110368           Santiago River          0123456780000368
622409475353469188958        00000657530369           Mercado Riley           0123456780000369
632431899110539152960        00000657080370           Lin Lyric               0123456780000370
632999497270726175146        00000656570371           Keller Amari            0123456780000371
622526547916398985668        00000654300372           Howe Cullen             0123456780000372
632974048920195659342        00000654140373           Baxter Lina             0123456780000373
632909557310630891065        00000649970374           Torres Esme             0123456780000374
632419693860501063635        00000649930375           Andrade Marilyn         0123456780000375
632901153893381837807        00000649350376           Dickson Bexley          0123456780000376
622530427285412491462        00000648300377           Wilcox Colson           0123456780000377
632405017065737265520        00000648050378           Nichols Estelle         0123456780000378
622646001260682419302        00000646650379           Ochoa Parker            0123456780000379
622450054583863791554        00000645340380           Howard Eddie            0123456780000380
622446543464994638870        00000644420381           Proctor Sage            0123456780000381
632738146514858888922        00000644290382           Wallace Evangeline      0123456780000382
622787036953441751889        00000643510383           Morris Atlas            0123456780000383
632204935092499569889        00000642750384           Hall Giovanna           0123456780000384
632277103204936123829        00000641620385           Avila Mavis             0123456780000385
632709946889584850683        00000640820386           McCarthy Paityn         0123456780000386
632798002910181088365        00000639950387           Faulkner Chandler       0123456780000387
622619062016189100714        00000637830388           Crawford Rylan          0123456780000388
622770648308221308446        00000637620389           Scott Dominic           0123456780000389
632209098612430984594        00000637190390           Gallagher Lea           0123456780000390
632243878342591521224        00000636020391           Norman Heaven           0123456780000391
622661807108587111148        00000635870392           Barrett Benjamin        0123456780000392
622985613002291003390        00000634180393           Travis Dominic          0123456780000393
632717724626509098154        00000633880394           Morris Vienna           0123456780000394
632507678884665440134        00000633440395           Barker Murphy           0123456780000395
622668579307338970414        00000632600396           Macias Quinton          0123456780000396
632344002373854830902        00000632510397           Campos Viviana          0123456780000397
622566929135979107949        00000631640398           Fisher Uriel            0123456780000398
632281082377387867518        00000630760399           Patel Arielle           0123456780000399
632167821145424652602        00000628450400           Tang Marianna           0123456780000400
622676264353235782294        00000628410401           Moreno Mordechai        0123456780000401
622489837546390211377        00000628280402           Chavez Jaziel           0123456780000402
632390479328407789904        00000627240403           Espinoza Megan          0123456780000403
622846325003214623318        00000627210404           Quintana Evan           0123456780000404
622557918155304978492        00000627150405           Reynolds Casen          0123456780000405
632292634165340434292        00000626960406           Friedman Milana         0123456780000406
622357328566589763018        00000625590407           Morrison Alaric         0123456780000407
632754418955147701538        00000622980408           McCarty Amari           0123456780000408
622194697962427095552        00000622140409           Meza Jabari             0123456780000409
632631180406647720007        00000621950410           Nunez Rebecca           0123456780000410
622924172373540796190        00000621730411           Marks Thomas            0123456780000411
632620766985719131216        00000620520412           Davila Lia              0123456780000412
622327276284747938052        00000620270413           Franklin Arlo           0123456780000413
622335808233491745353        00000615890414           Marquez Marcos          0123456780000414
622595292738428007478        00000615860415           Simpson Adan            0123456780000415
622414380284469536479        00000615400416           Salas Blake             0123456780000416
622374273153869043488        00000613830417           Stark Jaiden            0123456780000417
632201301652406598351        00000613780418           Hammond Holland         0123456780000418
622721287126736552770        00000613550419           McKee Leonard           0123456780000419
632842145026920869765        00000613330420           Barton Kadence          0123456780000420
622538096416776746000        00000612940421           Clayton Joziah          0123456780000421
622929863289819926485        00000611780422           Bond Fernando           0123456780000422
622773210339712387098        00000610710423           Vaughan Adrian          0123456780000423
622346685676653889543        00000610000424           Strickland Gael         0123456780000424
632650947867812765813        00000609310425           Rasmussen Chandler      0123456780000425
622457379210686122441        00000609000426           Archer Rayan            0123456780000426
622315309744469559946        00000608390427           Frederick Nasir         0123456780000427
632461625493915103183        00000607420428           Beard Camille           0123456780000428
632516411298883604232        00000606850429           Phelps Kenzie           0123456780000429
632423715027320414733        00000606250430           Meadows Norah           0123456780000430
632617680561252532596        00000605540431           Chavez Melani           0123456780000431
632466060739111413428        00000605140432           Fleming Willa           0123456780000432
622891696499634297877        00000605000433           Nolan Iker              0123456780000433
622432747028362432171        00000601810434           Sullivan Harrison       0123456780000434
622763948866473755409        00000601510435           Barry Emiliano          0123456780000435
632176491846796510821        00000601470436           Keith Celia             0123456780000436
622208401261870971948        00000601470437           McClure Neil            0123456780000437
632970329959786725741        00000600740438           Bruce Giovanna          0123456780000438
622453033152777075888        00000600700439           Clayton Miles           0123456780000439
632595793900797388778        00000599500440           Wilcox Poppy            0123456780000440
632931281640957280477        00000599210441           Truong Lily             0123456780000441
622769854024176638420        00000598850442           Pierce Denver           0123456780000442
622665966289938214892        00000598440443           Maxwell Kairo           0123456780000443
622640306568913416546        00000598020444           Conrad Derek            0123456780000444
622707977097640354030        00000597670445           Evans Brody             0123456780000445
632275538816886298688        00000597450446           Olson Marley            0123456780000446
622615653539973513221        00000596430447           York Abdiel             0123456780000447
632920853948756733353        00000596200448           Nicholson Ember         0123456780000448
622102704700465704041        00000595610449           Walsh Finley            0123456780000449
622432845246343829337        00000595500450           Villegas Ruben          0123456780000450
632888375480821570517        00000595290451           Conrad Alice            0123456780000451
622151893760308222004        00000594710452           Sutton Nathan           0123456780000452
622117749237717415774        00000594390453           Love Valentin           0123456780000453
622815659840912998165        00000594130454           Santana Jakobe          0123456780000454
622858934903115170965        00000593360455           Harrell Yusuf           0123456780000455
632899258199471934965        00000592730456           Butler Natalia          0123456780000456
622413600199996837189        00000590530457           Roman Carmelo           0123456780000457
622648771313344559855        00000589240458           Ventura Kaleb           0123456780000458
622353238576706678055        00000588040459           Calderon Allen          0123456780000459
622379866467756415487        00000585860460           Thomas Miller           0123456780000460
632313108434777417686        00000585690461           Johns Lorelai           0123456780000461
632485455630503890190        00000585390462           Sherman Madalyn         0123456780000462
622173282032780418891        00000584900463           Donovan Boden           0123456780000463
632836626254446614253        00000584660464           Levy Adelynn            0123456780000464
622973804348743567022        00000583240465           Morris London           0123456780000465
632969824503891401514        00000582960466           Gilmore Willa           0123456780000466
632542314893243711981        00000582510467           Cooper Hannah           0123456780000467
632494511520455445098        00000581960468           Garner Madisyn          0123456780000468
632325232904323238094        00000580310469           Yates Jemma             0123456780000469
632520889296189676992        00000579610470           Walsh Lexi              0123456780000470
632942979012158291942        00000579590471           Trevino Kailani         0123456780000471
632699817272840033724        00000578690472           Phillips Hadlee         0123456780000472
622567183127818485215        00000576940473           Pena Jamal              0123456780000473
622827731421698553698        00000576530474           Williamson Graysen      0123456780000474
622120229056830258656        00000576060475           Corona Brayden          0123456780000475
622695749663624768188        00000575350476           Lowery Caiden           0123456780000476
622528536609287222650        00000574600477           Sullivan Colter         0123456780000477
622443690156740123874        00000574460478           Whitney Gerardo         0123456780000478
622955352458708856567        00000572120479           Mitchell Kameron        0123456780000479
632110501837565386884        00000571360480           Wise Elizabeth          0123456780000480
622487853460164093520        00000570560481           Melendez Weston         0123456780000481
632808569510762755509        00000570190482           Wilkins Gwen            0123456780000482
632227560183935579217        00000569120483           Aguilar Katie           0123456780000483
632596199956512644947        00000569080484           Meyers Lilianna         0123456780000484
632618609879356427926        00000568320485           Bentley Rosalie         0123456780000485
632500637375757316297        00000567110486           Hutchinson Opal         0123456780000486
622101811708410146370        00000566390487           Sims King               0123456780000487
622487637480907378580        00000566380488           Spence Aydin            0123456780000488
622942524872494187277        00000565570489           Lindsey Devin           0123456780000489
622474557986631088246        00000565200490           Howard Layne            0123456780000490
632930705867109894401        00000564560491           Wiggins Lyric           0123456780000491
632291453544569542129        00000564220492           Koch Oakley             0123456780000492
622404861911285268048        00000563450493           Phan Paul               0123456780000493
622258585198644159558        00000561600494           Adkins Kaden            0123456780000494
632265519802683751603        00000560890495           Sullivan Saige          0123456780000495
632491124367900250781        00000560160496           Chapman Kori            0123456780000496
622540784435891216598        00000558060497           Collins Quincy          0123456780000497
622897437663510706951        00000557620498           Young Conrad            0123456780000498
622421844530439444602        00000556450499           Higgins Nathaniel       0123456780000499
632399421601532179546        00000553260500           Glass Madilynn          0123456780000500
632251233019147738386        00000551710501           Fisher Briella          0123456780000501
622778187233920816249        00000551090502           Jefferson Dane          0123456780000502
632410987947345564353        00000550760503           Cano Sierra             0123456780000503
622993426550871956762        00000550350504           Campbell Valentino      0123456780000504
622396794884949035538        00000548610505           Terry Azariah           0123456780000505
622847135084446957612        00000545320506           Bernard Anders          0123456780000506
632539012647329368930        00000545100507           Conway Lia              0123456780000507
632170944411445817307        00000544520508           Walters Arielle         0123456780000508
632847046615638584876        00000543810509           Wolf Nathalie           0123456780000509
622208895824995065514        00000542820510           Clay Bryan              0123456780000510
632225143544392101166        00000541880511           Steele Alia             0123456780000511
622748948348767770031        00000541000512           Strickland Hassan       0123456780000512
622486405134587378268        00000540840513           Montgomery Johnathan    0123456780000513
632162421840670477653        00000539240514           Combs Aurelia           0123456780000514
632581727282368238215        00000538500515           Hurst Myra              0123456780000515
622915506754564317199        00000538400516           McFarland Maximo        0123456780000516
622142601202958276491        00000538080517           Ramos Remi              0123456780000517
622156394161684150299        00000536050518           Kim Mack                0123456780000518
632313201184991697007        00000533570519           Parsons Mila            0123456780000519
632790762344450611639        00000532620520           Hahn Jemma              0123456780000520
632153976231845083510        00000532330521           Bullock Elina           0123456780000521
622332176789645265104        00000532070522           Giles Nolan             0123456780000522
622917729732949640111        00000531000523           Hayden Willie           0123456780000523
632396752941985152373        00000530260524           Cherry Annabella        0123456780000524
622841997733682001990        00000529890525           Barker Fox              0123456780000525
632400950370733134316        00000529680526           Pittman Charli          0123456780000526
622918513652235673462        00000529170527           Blair Kendrick          0123456780000527
632512334775379102342        00000529050528           Leach Claire            0123456780000528
632652861355888876805        00000528930529           Robertson River         0123456780000529
632470413299434195353        00000528170530           Rangel Caroline         0123456780000530
622905746635163130292        00000527450531           Clay Will               0123456780000531
632900523241405696218        00000526830532           Orozco Evangeline       0123456780000532
622343678488601423669        00000526640533           Sawyer Saint            0123456780000533
622618472272573904179        00000526440534           Archer Princeton        0123456780000534
622101802187999100918        00000525770535           Quintana Maximiliano    0123456780000535
632941695742154221828        00000525410536           Schroeder Paris         0123456780000536
632181595861307117600        00000524250537           Ochoa Lilyana           0123456780000537
632325276711204853769        00000522720538           Horn Aya                0123456780000538
622893225807841471711        00000522130539           McKenzie Harlem         0123456780000539
622323614953925502547        00000520120540           Ellis Cal               0123456780000540
622263398170847101112        00000520110541           Bradford Kenneth        0123456780000541
622734682858328386646        00000519860542           Todd Giovanni           0123456780000542
632109519459528484421        00000519140543           Mullen Jacqueline       0123456780000543
632876025374891155061        00000518640544           Delgado Bellamy         0123456780000544
632117949887148693754        00000517920545           Benitez Camilla         0123456780000545
632610459566932338290        00000517220546           Bradley Barbara         0123456780000546
622628936114375356133        00000517140547           Velez Princeton         0123456780000547
632232977414687517044        00000516680548           Hayden Nala             0123456780000548
622130791024214179473        00000514390549           Daugherty Cayden        0123456780000549
622386860173196765402        00000513170550           Patrick Maximilian      0123456780000550
622946767099328923457        00000511630551           Foster Gael             0123456780000551
632809799318141503383        00000507380552           Rivers Milan            0123456780000552
622675103082642406407        00000505310553           Cherry Ishaan           0123456780000553
632773192847659904568        00000504270554           Lawrence Kylee          0123456780000554
622337167103486665113        00000503150555           Weaver Julien           0123456780000555
632147815292543075257        00000500920556           Atkinson Aubree         0123456780000556
622849746649711908016        00000500340557           Booth Jaxtyn            0123456780000557
622938568317936309024        00000499390558           Magana Clayton          0123456780000558
622735661882827521824        00000498760559           Lang Cayden             0123456780000559
622360507561428840660        00000496250560           Stuart Julius           0123456780000560
622329783333239534098        00000494570561           Beil Abdiel             0123456780000561
632933078950456048069        00000494080562           Simpson Adelina         0123456780000562
622306450231137534681        00000493850563           Hale Zachary            0123456780000563
632167719748826469443        00000493390564           Tanner Marianna         0123456780000564
632105360800101100539        00000493300565           Bonilla Mallory         0123456780000565
622698662966972688924        00000492940566           Harrington Emory        0123456780000566
632435223794263975211        00000492280567           McPherson Londyn        0123456780000567
622576637759101361155        00000490800568           Esparza Davis           0123456780000568
632508097754508070515        00000489730569           Deleon Alicia           0123456780000569
632717098387840743359        00000489130570           Perry Nadia             0123456780000570
622558381516956692534        00000488420571           Padilla Baker           0123456780000571
632815455520659927986        00000486390572           Hensley Makenzie        0123456780000572
632993825848606250219        00000485340573           Hobbs Meghan            0123456780000573
622896991258981124472        00000485150574           Lloyd Erick             0123456780000574
622656570138520774375        00000484950575           Massey Barrett          0123456780000575
622254835953232276303        00000482730576           Burke Jeremy            0123456780000576
622346017509781023352        00000481680577           Kerr Austin             0123456780000577
632698952902900836593        00000481600578           Erickson Alaina         0123456780000578
622645283967901635893        00000480160579           Valentine Jonah         0123456780000579
632667194855860550970        00000479880580           Benjamin Amber          0123456780000580
622350309947897327923        00000479110581           Jackson Harris          0123456780000581
632259427169908888791        00000478670582           Lin Yamileth            0123456780000582
632860621411940230315        00000478260583           Perez Nalani            0123456780000583
632351384324357495758        00000477380584           Chambers Rachel         0123456780000584
632510855708946809228        00000474850585           Morrison Kamila         0123456780000585
632157733487580581164        00000473740586           Gregory Daphne          0123456780000586
632899017971535698934        00000473280587           Morton Alina            0123456780000587
622372687145545925380        00000472990588           Orozco Kalel            0123456780000588
622302674918199404236        00000472800589           Knight Winston          0123456780000589
632515218829936118214        00000471010590           Pittman Amaris          0123456780000590
622896820093906311417        00000470940591           Jacobson Derek          0123456780000591
622477302740579239239        00000470940592           Proctor Jayson          0123456780000592
622764729588104669557        00000470940593           Warren Johan            0123456780000593
622116533905290611058        00000470010594           Shields Simon           0123456780000594
632878911361884691447        00000469930595           Patel Aliana            0123456780000595
622987625336370081165        00000469920596           Preston Duke            0123456780000596
632854805672974049407        00000468600597           Benitez Kori            0123456780000597
632228813844799002841        00000467460598           Bryant Analia           0123456780000598
632880892525624529778        00000462740599           Goodwin Alaia           0123456780000599
632300886222873644095        00000462680600           Petersen Paula          0123456780000600
622967521402756869387        00000462450601           Raymond Conor           0123456780000601
632507975716548276511        00000461230602           Elliott Mazikee         0123456780000602
632201638152907452006        00000460600603           Sampson Kira            0123456780000603
632251105095766228285        00000460180604           Rich Hana               0123456780000604
622189774440537342580        00000459460605           Coleman Rodrigo         0123456780000605
622833593058485934064        00000457560606           McClure Korbin          0123456780000606
622584468395871893756        00000457160607           Quinn Adriel            0123456780000607
622236864685466755996        00000457030608           Norris Ezequiel         0123456780000608
622918574712870611394        00000457030609           Moran Kyler             0123456780000609
622484478740516930485        00000455530610           Colon Valentino         0123456780000610
622139524457333992715        00000454740611           Giles Johnny            0123456780000611
632467144630157357681        00000454530612           Long Viviana            0123456780000612
632511675485832320839        00000453900613           Hartman Myla            0123456780000613
632324976278692851421        00000452730614           Marks Lola              0123456780000614
622248040363115334901        00000452490615           Hudson Harlan           0123456780000615
632846744349279260044        00000452470616           Douglas Mazikee         0123456780000616
622743806309127528526        00000452370617           Holt Roger              0123456780000617
632246348370655443392        00000450740618           Graham Leighton         0123456780000618
632476991490733955450        00000448770619           Jacobson Mercy          0123456780000619
632302691540966940863        00000447140620           Pratt Ellianna          0123456780000620
622482895586253668270        00000447050621           Velasquez Avi           0123456780000621
622435586087271711468        00000446880622           Woods Lucas             0123456780000622
622745964441476595164        00000446360623           Peterson Jameson        0123456780000623
622642360831767685636        00000445290624           Cunningham Colt         0123456780000624
632429453783959448043        00000444770625           Rice Raina              0123456780000625
622489373812573695937        00000443010626           Ward Odin               0123456780000626
622898091302275141260        00000441530627           Chandler Corbin         0123456780000627
622324852301261669218        00000440780628           Cook Zyair              0123456780000628
632435581946204357497        00000439680629           Francis Matilda         0123456780000629
632719783047964500465        00000436450630           Casey Vienna            0123456780000630
632656971053762396574        00000435880631           Webster Alianna         0123456780000631
622271016519907918435        00000434780632           Lim Flynn               0123456780000632
622165795702296439793        00000432200633           Benton Francisco        0123456780000633
622732171406239631208        00000430670634           O’Connor Finn           0123456780000634
632269312136940787464        00000429830635           Caldwell Eliza          0123456780000635
632725799103566791658        00000426120636           Cole Veda               0123456780000636
622756145885793490800        00000425420637           Camacho Castiel         0123456780000637
632247115124915039991        00000424750638           Luna Gracelyn           0123456780000638
622567109755385004915        00000424210639           Woodward Ronan          0123456780000639
622524183325554170869        00000422320640           Silva Calvin            0123456780000640
622312693090754424073        00000422000641           Zhang Kobe              0123456780000641
622175588505926709881        00000420790642           Lang Bear               0123456780000642
632829781142490359515        00000420740643           Barton Genevieve        0123456780000643
622660524174414992433        00000420630644           Sherman Duke            0123456780000644
622676199118259655504        00000420540645           Macias Curtis           0123456780000645
622736982819534152150        00000419720646           Nielsen Jase            0123456780000646
632408315214700263122        00000419660647           Holt Rory               0123456780000647
622705276903991971272        00000419330648           Dominguez Westin        0123456780000648
632290252830256721454        00000419230649           Benjamin Kamari         0123456780000649
632234042409193363528        00000418590650           Duarte Ashlyn           0123456780000650
622227915523657880625        00000418580651           Jacobs Shane            0123456780000651
632983765861870535152        00000417990652           McFarland Samira        0123456780000652
622785575009304812119        00000413810653           Leal Abram              0123456780000653
622427392796988731773        00000413410654           Curtis Knox             0123456780000654
622782267396945961691        00000412400655           Vo Sawyer               0123456780000655
622398057804476025873        00000408460656           Bauer Preston           0123456780000656
632448097292503665963        00000408060657           Rosas Alexandra         0123456780000657
622118553493663703279        00000407970658           Fowler Beckham          0123456780000658
632103712842131112969        00000407050659           Jordan Audrey           0123456780000659
622999379045312967142        00000405750660           Cuevas Bruno            0123456780000660
632332568802155849577        00000405070661           Patton Maci             0123456780000661
622870777610688550003        00000404430662           Pitts Aidan             0123456780000662
622379473509563221198        00000403320663           Daugherty Luis          0123456780000663
622428184631541413446        00000402550664           Gill Eli                0123456780000664
632356529646393179291        00000399050665           Dawson Clementine       0123456780000665
622181761988566769110        00000398590666           Duke Izaiah             0123456780000666
622638325760747813169        00000396100667           Velazquez Dane          0123456780000667
622124436905685765037        00000395290668           Daniels Mathias         0123456780000668
632167332854815934284        00000394730669           Mann Jessica            0123456780000669
632431455285688772604        00000394550670           Knapp Harmoni           0123456780000670
632548889599586899774        00000394290671           Zhang Sariyah           0123456780000671
622857213093216191970        00000394270672           Abbott Blaise           0123456780000672
622328914084224115982        00000394230673           Holloway Bodhi          0123456780000673
622588043611175410541        00000392520674           Ibarra Gavin            0123456780000674
632162728568537802980        00000391420675           Mendoza Kyla            0123456780000675
632326822826688521202        00000391100676           Buchanan Andi           0123456780000676
632591994174628383460        00000390970677           Pineda Hadley           0123456780000677
632569740259805595761        00000389780678           Summers Isabelle        0123456780000678
622126453912414218666        00000389670679           Skinner Nehemiah        0123456780000679
622823662228980475126        00000388240680           Montgomery Russell      0123456780000680
622464205597874317169        00000387750681           Benson Creed            0123456780000681
622960586376912312461        00000387490682           Middleton Rogelio       0123456780000682
632214118817158228359        00000386090683           Stewart Briar           0123456780000683
622681994426507772537        00000385370684           Gregory Hector          0123456780000684
622324334372647500711        00000383940685           Walsh Hank              0123456780000685
622559147098164074256        00000383240686           Lynn Amos               0123456780000686
632596523723176148479        00000382590687           Diaz Madalynn           0123456780000687
622440466233834811335        00000382120688           Michael Travis          0123456780000688
632388685867790136062        00000381040689           Andrade Sophie          0123456780000689
622722336844225277780        00000378720690           Hubbard Ryland          0123456780000690
632125342653672809991        00000377670691           Greene Edith            0123456780000691
622723073554208983455        00000376550692           Haynes Conrad           0123456780000692
622515394833514155446        00000376190693           Cline Ronan             0123456780000693
622377565440693466020        00000373420694           Ramsey Jamie            0123456780000694
622817791166692116330        00000373420695           Bentley Ray             0123456780000695
622180990573217842011        00000372180696           McConnell Brennan       0123456780000696
632359310222941834980        00000371260697           Mendoza Evangeline      0123456780000697
622608135752359406104        00000370930698           Garner Harvey           0123456780000698
632740690078548074241        00000370720699           Palmer Melanie          0123456780000699
632961197007749954013        00000370620700           Beck Nia                0123456780000700
622642767525936902112        00000369940701           Rose Conor              0123456780000701
632128319821264009244        00000369570702           Stein Cassandra         0123456780000702
632927690786876461272        00000369320703           Davis Marina            0123456780000703
622183285768411257677        00000368630704           Duran Ace               0123456780000704
622702758238747300104        00000368580705           Barrett Rafael          0123456780000705
622709706723720926164        00000368320706           Chen Kobe               0123456780000706
632774889379853203467        00000367800707           Dudley Royal            0123456780000707
622634495219244769700        00000364250708           Arroyo Memphis          0123456780000708
622854652806263305516        00000364210709           Stephenson Ahmad        0123456780000709
622120708952175581072        00000361360710           Martin Zain             0123456780000710
622281644382245690470        00000359780711           Beasley Wesson          0123456780000711
632549303720294897369        00000359290712           Norris Ryann            0123456780000712
632201764933127318259        00000358940713           Edwards Kaitlyn         0123456780000713
632826905141101098581        00000357600714           Cameron Genesis         0123456780000714
632759407206167239419        00000356760715           Roach Melanie           0123456780000715
622366482367109471290        00000352750716           Cruz Quentin            0123456780000716
632566771184622905850        00000351980717           Contreras Emberly       0123456780000717
622918493424543597213        00000350040718           Lucero Darren           0123456780000718
632743408265549577808        00000345780719           Bass Aliana             0123456780000719
622653911528343940339        00000345300720           Pacheco Larry           0123456780000720
622307718533700718293        00000345100721           Guerra Orion            0123456780000721
632613184361867722191        00000344890722           Larson Magnolia         0123456780000722
632398769991439259291        00000344080723           Maxwell Freyja          0123456780000723
622799530760758286797        00000343710724           Gardner Yousef          0123456780000724
632497333987620243033        00000342780725           Rivera Nevaeh           0123456780000725
622554805558455816157        00000342470726           Freeman Kylian          0123456780000726
632332905269174975810        00000341630727           Barker Estella          0123456780000727
622285753786644889632        00000338900728           Hines Charlie           0123456780000728
632998479027389380091        00000337670729           Fisher Anais            0123456780000729
632528693282783334433        00000337360730           Shah Sadie              0123456780000730
632559194311502392739        00000335220731           Kirby Collins           0123456780000731
632307527479587777995        00000334780732           Schaefer Aaliyah        0123456780000732
632183663401861428433        00000334570733           Roach Nadia             0123456780000733
622657190664295617370        00000334270734           Wright Westley          0123456780000734
632567212568672781873        00000333620735           Simmons Willow          0123456780000735
632669398221440102469        00000329230736           Bryan Melani            0123456780000736
632249793404244241761        00000326590737           Haley Sierra            0123456780000737
632364272796526056423        00000326400738           Malone Anastasia        0123456780000738
632148339509718390174        00000325900739           Ortega Robin            0123456780000739
632499663173165883589        00000325450740           Elliott Avianna         0123456780000740
632782459719303140239        00000325200741           Beasley Megan           0123456780000741
622410776142907989495        00000324090742           Arellano Blake          0123456780000742
622683153272230690179        00000322450743           Norton Walter           0123456780000743
622657828553647455705        00000322340744           Morton Chase            0123456780000744
622319472604709976508        00000322320745           Quinn Charles           0123456780000745
632561840283666058428        00000321930746           Callahan Zora           0123456780000746
632765493327322971044        00000321780747           O’brien Gabriella       0123456780000747
632555045404666464002        00000321290748           Gentry Lacey            0123456780000748
632487129037352054098        00000320990749           Pace Kailani            0123456780000749
622707374008463172323        00000320270750           Daugherty Julien        0123456780000750
622370301497145797440        00000320000751           Krueger Atticus         0123456780000751
622569054375123630621        00000319890752           Lane Marcos             0123456780000752
622291294136385199798        00000319580753           Grant Caspian           0123456780000753
632261320324172899581        00000319020754           Brooks Magdalena        0123456780000754
632792637229360332538        00000317660755           James Luciana           0123456780000755
622902076966149632952        00000317450756           Potter Jaime            0123456780000756
622845690815398043570        00000317120757           White Everett           0123456780000757
622324813754650056504        00000316650758           O’Donnell Eden          0123456780000758
622463188681848490340        00000315360759           Lang Shepard            0123456780000759
632150617405777740479        00000314790760           Wong Bellamy            0123456780000760
622109061383961433117        00000314670761           Fitzpatrick Ben         0123456780000761
632678994086196165382        00000314470762           Frank Izabella          0123456780000762
622462566225104088306        00000313380763           Garner Eliezer          0123456780000763
632448018539504320679        00000313150764           Stout Amy               0123456780000764
622331509544607107154        00000312860765           Hardy Eliseo            0123456780000765
632323666290541604275        00000310460766           Bond Amber              0123456780000766
622745041669995025801        00000309940767           Portillo Riggs          0123456780000767
632398344828144295633        00000309790768           Bartlett Raegan         0123456780000768
632357232764617842545        00000309310769           Hines Samara            0123456780000769
622795216614390192716        00000309080770           Johns Jayden            0123456780000770
632888360683486601672        00000307710771           Tang Mira               0123456780000771
622707452171554607020        00000307590772           Novak Hassan            0123456780000772
632217686894336718124        00000307360773           Ferguson Leighton       0123456780000773
622132858269763494004        00000307230774           McCullough Wayne        0123456780000774
622796904197827854513        00000306160775           Le Anderson             0123456780000775
622848588960210649553        00000303820776           Rogers Chase            0123456780000776
632906780045576841589        00000303550777           Smith Kara              0123456780000777
632249896035923310917        00000302760778           Banks Kamilah           0123456780000778
632564446563957752458        00000302760779           Cardenas Monica         0123456780000779
632542247144553534735        00000300900780           Meyers Vienna           0123456780000780
622221424170945331260        00000300650781           O’Connor Kade           0123456780000781
622880013608734248734        00000298750782           Sellers Travis          0123456780000782
622342066126671790220        00000298730783           Clarke Dash             0123456780000783
632895480048579413130        00000297830784           Combs Jayleen           0123456780000784
622847668840549315130        00000296740785           Gates Rio               0123456780000785
622594746935271277679        00000296560786           Freeman Salvatore       0123456780000786
622172290561687669715        00000295520787           Roman Royce             0123456780000787
632390195032990412284        00000295370788           Schroeder Melina        0123456780000788
622280358311974784596        00000291990789           Wood Jaxtyn             0123456780000789
622438095037324170754        00000291340790           Lyons Samson            0123456780000790
632464955914126051545        00000290290791           English Alaia           0123456780000791
632490180026279826791        00000288610792           Fowler Poppy            0123456780000792
622218232421218130123        00000288010793           Hobbs Rodrigo           0123456780000793
632158108873375115161        00000285870794           French Zelda            0123456780000794
632744014078833887276        00000285510795           Ibarra Alexis           0123456780000795
632121560454435017264        00000285000796           Hendricks Clara         0123456780000796
622845792373796785650        00000284730797           Carey Miller            0123456780000797
622174283529769398071        00000284120798           Butler Reid             0123456780000798
622942877221207574741        00000283330799           Gray Kiaan              0123456780000799
632704269214914089049        00000282130800           Quintero Adelyn         0123456780000800
622831415411599826143        00000282100801           Gonzales Jakari         0123456780000801
622826858113320788632        00000282040802           Ali Reign               0123456780000802
622447307289834808739        00000281970803           York Joel               0123456780000803
622622814546253599998        00000280560804           Stanley Orlando         0123456780000804
622993247509852955260        00000279130805           Warren Leroy            0123456780000805
632424276062778759498        00000278590806           Carlson Myra            0123456780000806
632644024338861241137        00000277380807           Bryan Faye              0123456780000807
622164401379402358397        00000277160808           Pope Dean               0123456780000808
622907472360571480100        00000276830809           Briggs Brendan          0123456780000809
632117392613788789821        00000276810810           Allen Aliza             0123456780000810
632838668141158500085        00000275220811           Santiago Aislinn        0123456780000811
632673763755371049752        00000273880812           Ballard Alaya           0123456780000812
632924914633804392556        00000272400813           Weeks Ariana            0123456780000813
632613946901445964699        00000270900814           Dean Karla              0123456780000814
632111200122214415515        00000270810815           Ford Kenna              0123456780000815
622834552409145885416        00000269560816           Mason Zyaire            0123456780000816
632303145703971264039        00000268620817           Kaur Brielle            0123456780000817
622771588460607669463        00000268600818           Kane Owen               0123456780000818
622702995600900300669        00000267430819           Nielsen Rylan           0123456780000819
622229390388985438194        00000267210820           Hopkins Dakari          0123456780000820
632716672289627158799        00000265010821           Wheeler Maggie          0123456780000821
622331342465232229608        00000264660822           Jenkins Kaison          0123456780000822
622586778094688442451        00000263960823           Rose Kyro               0123456780000823
622138016467234409013        00000263650824           Hanna Jaxtyn            0123456780000824
622169162699559211213        00000262990825           Vazquez Niko            0123456780000825
632967805816380502291        00000262930826           Friedman Adele          0123456780000826
632508046610296835689        00000262730827           Harrison Carmen         0123456780000827
622436455573630044959        00000261180828           David Musa              0123456780000828
622438138454132422194        00000260950829           McIntosh Crew           0123456780000829
622869777022320304425        00000260370830           Lowe Jonathan           0123456780000830
622517155226174101560        00000260060831           Mendez Beckham          0123456780000831
622135912066587289229        00000259510832           Burch Eduardo           0123456780000832
632145804722682368429        00000259070833           Hines Grace             0123456780000833
632198981429727987153        00000258940834           McFarland Jaliyah       0123456780000834
622126134197697424646        00000258930835           Greene Uriel            0123456780000835
632166746819696083151        00000258750836           Wise Myla               0123456780000836
632501766684227250438        00000258620837           Singh Emelia            0123456780000837
622478494395682229604        00000258170838           Levy Major              0123456780000838
632619036840193844939        00000257600839           Kirk Madalynn           0123456780000839
622732386263176175562        00000257330840           Shelton Carter          0123456780000840
622935336562514342236        00000254340841           Russo Frederick         0123456780000841
632201233441131745632        00000252750842           Barajas Norah           0123456780000842
622482760910742803851        00000251250843           Jacobs Randy            0123456780000843
632485730394824740959        00000250870844           Baldwin Kinsley         0123456780000844
632658416602161714785        00000250700845           Wilkinson Rhea          0123456780000845
622950934709148947900        00000248760846           Reyes Corey             0123456780000846
622501485422129080364        00000248040847           Jimenez Paul            0123456780000847
622360235168959330475        00000248010848           McMillan Braylon        0123456780000848
622479088563783535456        00000246330849           Wang Dante              0123456780000849
632921547973550815619        00000244330850           Carrillo Leona          0123456780000850
632275661885441165279        00000242350851           Zamora Rayna            0123456780000851
632342737399319867674        00000242190852           Villalobos Camilla      0123456780000852
622139755774357241337        00000241550853           Page Philip             0123456780000853
622503939472946968098        00000239840854           Klein Bowen             0123456780000854
622358586643258807903        00000239710855           Roy Ayan                0123456780000855
632777843537885033717        00000239610856           Glass Nyomi             0123456780000856
632142882020865108382        00000236630857           Bryant Remy             0123456780000857
632664080587979703723        00000236030858           Fuentes Liliana         0123456780000858
622195924202581457538        00000235520859           Pearson Kaiser          0123456780000859
622883797897131142105        00000234560860           Foster Joziah           0123456780000860
622359062531324010630        00000233690861           Koch Armando            0123456780000861
632795422637142123906        00000233340862           Escobar Gracie          0123456780000862
622547295808585021394        00000232890863           Miller Jaxen            0123456780000863
622114175384119446192        00000232400864           Collier Carson          0123456780000864
622377964453236504904        00000231380865           Case Wayne              0123456780000865
632692610276470956513        00000231310866           Vaughan Lilyana         0123456780000866
632902872618931465657        00000230360867           Atkinson Flora          0123456780000867
632579188244690681596        00000229950868           Andersen Yasmin         0123456780000868
622767553860574773894        00000229370869           Boone Brixton           0123456780000869
622821784654366639969        00000226270870           Jordan Mohammad         0123456780000870
622397556180503781121        00000224440871           Benson Kobe             0123456780000871
632810418346608334073        00000224400872           Ward Annika             0123456780000872
632793890724274582648        00000223230873           Villarreal Jordan       0123456780000873
622225560871821420614        00000222670874           Corona Aden             0123456780000874
632567999172976742135        00000221600875           Mullins Alora           0123456780000875
632207076572952762085        00000221570876           Wolf Elisa              0123456780000876
622195406274744539932        00000220250877           Clayton Allan           0123456780000877
632157605779593165102        00000219200878           Matthews Lena           0123456780000878
632740960004336136177        00000217100879           Hansen Aspyn            0123456780000879
632627603031511843809        00000215800880           Hale Selena             0123456780000880
622293475568793248600        00000215660881           Pittman Isaias          0123456780000881
622106820225477214157        00000212600882           Ware Kace               0123456780000882
622356479432121368902        00000212590883           Morrison Remi           0123456780000883
632188620566400077964        00000211050884           Newman Bailee           0123456780000884
632404361106212978178        00000208780885           Wilkerson Itzayana      0123456780000885
632404042351172343984        00000207350886           Carlson Rylie           0123456780000886
632562090778114760061        00000207240887           Mata Gracelynn          0123456780000887
632329915887251037068        00000206580888           Fisher Sloan            0123456780000888
622307448381633267254        00000206380889           Zamora Sterling         0123456780000889
632429363811544648899        00000205290890           Tapia Sloan             0123456780000890
622878378840409235040        00000203260891           Booker Malik            0123456780000891
632832270550588922160        00000202760892           Beasley Gabriela        0123456780000892
622240637587263155476        00000201290893           Corona Kabir            0123456780000893
632574986984134477304        00000199090894           O’Connor Marleigh       0123456780000894
622994404768230390193        00000196930895           Conner Gideon           0123456780000895
632680214459522075598        00000195290896           Herrera Itzel           0123456780000896
632623545127962340295        00000194960897           Jacobs Giavanna         0123456780000897
632831826245438170483        00000193190898           Summers Bria            0123456780000898
632248673814281909256        00000192640899           Charles Mae             0123456780000899
632112548612125881838        00000192460900           Magana Baylee           0123456780000900
622903307279393609560        00000190970901           Rowe Gael               0123456780000901
632892287289361780271        00000190120902           McConnell Magnolia      0123456780000902
632875456693616137929        00000189730903           Hendrix Colette         0123456780000903
622598945606120935900        00000189160904           Aguirre Tommy           0123456780000904
632563208216632515924        00000188970905           Ball Sophie             0123456780000905
632167463090775651413        00000186220906           Summers Julia           0123456780000906
632286907417539445034        00000185670907           Norris Cleo             0123456780000907
622250201707485998580        00000185300908           Benton Theo             0123456780000908
622546952077352015926        00000183850909           Walls Parker            0123456780000909
632723446376757671502        00000183670910           Garrett Kora            0123456780000910
632446473781589558137        00000183450911           Bruce Kenia             0123456780000911
622679359001779170796        00000183360912           Travis Aarav            0123456780000912
632943295340900809689        00000181980913           French Mary             0123456780000913
622811110016438402446        00000180930914           Cole Briggs             0123456780000914
632935041868470335134        00000180150915           Matthews Haylee         0123456780000915
622417131915105380709        00000178900916           Johns Stanley           0123456780000916
622290859652202026846        00000178760917           Steele Martin           0123456780000917
632624416887396222548        00000177770918           Holmes Sloane           0123456780000918
632320694422367720804        00000177690919           Best Kenia              0123456780000919
632832232095886493855        00000177680920           Johns Indie             0123456780000920
632382150921932285517        00000176690921           Jacobs Jordyn           0123456780000921
632967710412715109017        00000176420922           Yoder Denise            0123456780000922
632819389241174975716        00000175080923           Arnold Jayla            0123456780000923
622950008169340331155        00000175040924           Le Eduardo              0123456780000924
632342811076232700228        00000174810925           Douglas Charli          0123456780000925
622929436153291929820        00000173270926           Fischer Cain            0123456780000926
622970618462197054190        00000169460927           Maldonado Nathanael     0123456780000927
632795517810311409156        00000168620928           Hubbard Frances         0123456780000928
622843281287904170156        00000168550929           Bravo London            0123456780000929
632493734663363853713        00000168420930           Galindo Joyce           0123456780000930
632988966253329639767        00000165140931           Davidson Ayla           0123456780000931
632611320055149051406        00000162750932           Rush Kendall            0123456780000932
622989481857809006269        00000162350933           Velazquez Adan          0123456780000933
622334508841556105867        00000161740934           George Hamza            0123456780000934
632761011443261256591        00000161310935           Dean Rosalie            0123456780000935
622647793994142952955        00000160210936           Maynard Santos          0123456780000936
632588201420787418557        00000160040937           Mercado Vivian          0123456780000937
632540447759979852701        00000159660938           Richardson Martha       0123456780000938
632213825026373487977        00000157820939           Beck Regina             0123456780000939
632602755993803569887        00000157570940           Vance Aubriella         0123456780000940
622606210324306029059        00000157440941           Davidson Enrique        0123456780000941
622510589519479600616        00000153760942           Ford Thomas             0123456780000942
632659885650583281308        00000152850943           Harvey Sutton           0123456780000943
632700939717916675774        00000152320944           Blevins Remington       0123456780000944
632137736485621687064        00000151880945           Blake Kiara             0123456780000945
622757638530199903480        00000151560946           Pugh Darwin             0123456780000946
622408721077854377726        00000151020947           Newman Jaylen           0123456780000947
632847081496274559261        00000150370948           Avery Genesis           0123456780000948
632245370509874782930        00000148480949           Bernard Tiana           0123456780000949
632350630479785847359        00000146810950           Poole Adaline           0123456780000950
632237761247306831072        00000144980951           Dominguez Zoya          0123456780000951
622569784076530597462        00000144730952           Ortega Uriah            0123456780000952
622776714294138477987        00000143760953           Norris Reuben           0123456780000953
632298201248804208828        00000143480954           Clayton Mabel           0123456780000954
622706174705335148237        00000143210955           Mora Jaxson             0123456780000955
622558792491458595240        00000141800956           Conway Cassius          0123456780000956
632945014073194546272        00000140760957           Stout Celeste           0123456780000957
622224030922655994155        00000139410958           Ray Callahan            0123456780000958
632978759158292966431        00000138840959           Hood Adalynn            0123456780000959
632230135418926433361        00000137310960           Frye Catherine          0123456780000960
632979380198490904386        00000135650961           Stanton Emelia          0123456780000961
632316036376939925056        00000134810962           Dean Stella             0123456780000962
632784864087770472549        00000134650963           Hanna Mara              0123456780000963
632808636981257556569        00000134470964           Ward Jolene             0123456780000964
622313237265498593288        00000133700965           Murillo Cyrus           0123456780000965
632714954603183531533        00000132620966           Stevens Karter          0123456780000966
632896736819313540676        00000129650967           Chen Lily               0123456780000967
632676762608535016975        00000128200968           Wallace Cynthia         0123456780000968
632537188662464854425        00000126630969           Fields Sloane           0123456780000969
632145159887303201974        00000126530970           May Alayah              0123456780000970
622837402299251662363        00000124970971           Robertson Zachariah     0123456780000971
632590319480194865240        00000124040972           Terrell Kendall         0123456780000972
622123456782123456789        00000123450973           John Doe                0123456780000973
632123456783123456790        00000123450974           Jane Doe                0123456780000974
632542492691404242725        00000122280975           Lindsey Amayah          0123456780000975
622833984990559380839        00000122270976           Whitney Justice         0123456780000976
622386286359813629158        00000121780977           Xiong Enrique           0123456780000977
622585722640898732898        00000119960978           Barnes Forrest          0123456780000978
632764873418331600693        00000119350979           Malone Waverly          0123456780000979
622991134382505680173        00000118900980           Leach Milo              0123456780000980
622623057770768905800        00000118650981           Griffith Braxton        0123456780000981
632765073126613836421        00000117040982           Franco Rosie            0123456780000982
632608911983697300954        00000115170983           Mendoza Stormi          0123456780000983
622531175503918495181        00000112340984           Campos Shane            0123456780000984
622404750349784046195        00000112160985           Buck Parker             0123456780000985
622522109571353551129        00000112050986           Stevenson Cairo         0123456780000986
632944592672720709286        00000111670987           Montoya Carolina        0123456780000987
622704180822198782963        00000111070988           Burnett Thatcher        0123456780000988
632667718248800489145        00000110650989           Wilkinson Athena        0123456780000989
632133861586375272617        00000109760990           Guevara Nyla            0123456780000990
622779752610649331182        00000108640991           Avery Andrew            0123456780000991
622529430633718133363        00000108440992           Morse Jeffery           0123456780000992
622892848815429477022        00000105990993           Drake Dior              0123456780000993
622554044918401354232        00000105410994           Friedman Eduardo        0123456780000994
632976384538618368228        00000105070995           Russell Esme            0123456780000995
632419139556150855267        00000104690996           McConnell Marilyn       0123456780000996
632434769742829290824        00000103190997           Harrison Savanna        0123456780000997
632451453310755522521        00000102490998           Edwards Jessie          0123456780000998
632341234904610982172        00000102190999           Jaramillo Heaven        0123456780000999
622104797056430149710        00000101481000           Arellano Foster         0123456780001000
632124959817202307206        00000100981001           Petersen Laurel         0123456780001001
632673296836241157026        00000100791002           Harvey Avianna          0123456780001002
632485072716870945010        00000100501003           Delacruz Landry         0123456780001003
822000100346063457130000000000000000549622760000000000                         123456780000001
9000001000102000010034606345713000000000000000054962276                                       
9999999999999999999999999999999999999999999999999999999999999999999999999999999999999999999999
9999999999999999999999999999999999999999999999999999999999999999999999999999999999999999999999
9999999999999999999999999999999999999999999999999999999999999999999999999999999999999999999999